:1020000000800020C5530000AD530000AD53000018
:1020100000000000000000000000000000000000C0
:10202000000000000000000000000000AD530000B0
:102030000000000000000000AD5300001954000033
:10204000AD530000AD530000AD530000AD53000090
:1020500009510000AD530000AD530000B153000022
:10206000AD530000AD530000AD530000AD53000070
:10207000193600002936000039360000AD53000043
:10208000AD530000AD530000AD530000AD53000050
:1020900000000000AD530000AD530000AD53000040
:1020A000AD530000AD530000AD530000AD53000030
:1020B0000000000010B5064C2378002B07D1054B1B
:1020C000002B02D0044800E000BF0123237010BDA4
:1020D000C00000200000000014640000044B10B594
:1020E000002B03D00349044800E000BF10BDC046E8
:1020F00000000000C40000201464000010B500219E
:10210000162003F0BBFB0221182003F06BFB022119
:102110001A2003F067FB0121192003F063FBFA206A
:10212000400003F0B7F910BD10B5022104001520DE
:1021300003F058FB0121172003F054FB01211C2060
:1021400003F050FB0121172003F098FB01211C2014
:1021500003F094FB0121072003F044FB0121082038
:1021600003F040FB0221002003F03CFB002108208B
:1021700003F084FB0021072003F080FB01210E20E7
:1021800003F030FB01210E2003F078FB0121092030
:1021900003F028FB0121092003F070FB02210B2032
:1021A00003F020FB01210A2003F01CFB02210D207B
:1021B00003F018FB01210C2003F014FB0121162071
:1021C00003F010FBFFF79AFF01211B2003F00AFB2D
:1021D00000211B2003F052FB02211D2003F002FB13
:1021E00002211F2003F0FEFA01211E2003F0FAFA5B
:1021F000FA20400003F04EF9200010BD10B5012177
:10220000162003F0EFFAFFF779FFE121084C4902AD
:10221000200001F0B7FD00F06FF900F009FA002886
:1022200004D00449200003F079F8FEE710BDC04651
:10223000740A0020E55D000010B501240549064A36
:102240000B68234001D113700C601378002B00D170
:1022500000BA10BDE0000020F104002010B50124F8
:102260000649074A0B68234001D113700C601378AC
:10227000002B01D140BA80B210BDC046DC00002066
:10228000F004002010B50248FFF74EFF10BDC04615
:10229000E4000020F8B5070004000E0005000B372D
:1022A000BD4207D0224801F017FD431CF8D028702A
:1022B0000135F5E7A37860781B020343E07800045A
:1022C0000343207900061843FFF7B6FF020A607047
:1022D000A270A379020C000E207160791B020343E7
:1022E000E079E27000040343207A00061843FFF708
:1022F000A3FF020A6071A271020C000E2072A07A84
:10230000637A00021843E271FFF7A8FF0500030A91
:102310006072A372002D09D0054801F0DDFC431C5A
:10232000F8D0013D3070ADB20136F3E7F8BDC046DC
:10233000740A0020F7B54E4C4E4E20003100FFF7D6
:10234000A9FF2378992B1DD1A278637812021A4332
:10235000E3781B041A4323791B061343464A93422E
:1023600010D1A279637912021A43E3791B041A434C
:10237000237A1B061343414A934203D14049414803
:1023800002F0BBFF2378502B0AD18020C000FFF75A
:1023900065FF6B46991D088002223A4801F07EFCD9
:1023A0002378012B1ED1A37965791B022B43E57994
:1023B00061782D042B43257A30002D061D43A37828
:1023C0002A001B020B43E17809040B43217909061B
:1023D000194300F0BBFE2B4F00283FD02A4938009C
:1023E00002F0A6FF2378022B17D1A27A637A120299
:1023F0001A43A37861781B020B43E178300009048B
:102400000B4321790906194300F0CEFE1E49031E35
:102410001C4800D11D4902F070FF2378032B1CD10A
:10242000A37961791B020B43E179607809040B43BE
:10243000217A09061943A3781B020343E0780004BC
:10244000034320790006184300F0DEFE0E49031E08
:102450000C4800D10D4902F050FFF7BD31002A00B1
:10246000380001F01BFC0949380002F046FFB9E7CB
:10247000E5000020F00000204433221188776655E3
:10248000D85D0000740A0020DF5D0000E25D0000FE
:10249000064B0022190028310A701A601A00FF2129
:1024A00029321170024A1A677047C046F4040020AE
:1024B00060EA000010B50400013C00D210BD01200C
:1024C00002F0E8FFF8E70000002010B5094C2056A4
:1024D00000280DDB0021C0B203F0D0F96420FFF723
:1024E000E9FF2078012103F0C9F96420FFF7E2FF3A
:1024F00010BDC046070000200022002010B5104B80
:10250000104C1A602056904207DBC0B2012103F044
:1025100069F92078012103F0B1F90B4B00211878FB
:1025200003F060F90020094B1856002803DBC0B205
:10253000022103F057F9FFF7C7FF002010BDC04686
:10254000680500200700002006000020040000208D
:10255000034B044A1A6000221A7101325A71704703
:102560006C050020001BB70010B5094800F0E2FF21
:10257000084C0121207803F035F92078012103F07F
:102580007DF9FFF7A1FF0120FFF794FF002010BDA8
:10259000E807002005000020F0B585B003283ED1F3
:1025A000002202AB0D6807330C894E681A70954201
:1025B00022D0964230D101961E0001320092194B72
:1025C000194F06CB380000F0DDFF184B00211878BA
:1025D00003F054F9002C14D02978380000F0DBFE09
:1025E000009B30705A425341F618019B013C5A42FD
:1025F0005341A4B2ED18EDE70122009501921D00B0
:10260000DDE70A4B0121187803F038F9380000F0B3
:1026100039FF200005B0F0BD06204042FAE7012056
:10262000FBE7C0466C050020E807002005000020FD
:1026300010B500F059F9041E01D100F003F8200094
:1026400010BD0000002307B5104801A9019300F058
:1026500007F9002819D18021019B490019430B4833
:10266000019100F001F900280FD1D02001A940010B
:1026700000F0F6F8002808D18021D020019B490203
:1026800019434001019100F0EFF80EBD081400005D
:1026900037B51F4C2568002D20D180202100400136
:1026A00000F0DEF8002803D00023236028003EBDA0
:1026B00001A9184800F0D4F80028F5D12368164A7B
:1026C00093420DD1019B012B01D0144B2360236851
:1026D000134A1A40A023DB02134323602568E5E771
:1026E000104A934208D1019B032BF0D0042B01D157
:1026F0000D4BEBE70D4BE9E70D4A9342E7D1EC2098
:102700002100800300F0ACF80028CDD1DFE7C046FF
:1027100074050020F4130000A0021000A1021000B4
:10272000FFFFF0FFB0021000B1021000B202100073
:10273000F0001000002373B50B206946009301934D
:1027400000F08EF8041E09D10121009B0B4207D036
:102750006946012000F084F8041E08D0200076BDF0
:1027600019430B2000F080F8041EF1D0F6E7022197
:10277000009B0B4213D00525042601A90F2000F071
:102780006FF8041EEAD1019B33420FD10220013DB4
:10279000FFF790FE002DF0D104246442DEE71943D8
:1027A000012000F061F8041EE5D0D7E700F050F8F2
:1027B000D4E70000002337B5154801A9019300F0C4
:1027C0004FF80121019B040019431148019100F0C9
:1027D0004BF80419A02001A9400100F041F8E4B22F
:1027E00001992418E4B24B0501D460B23EBDA0208B
:1027F000084B40011940019100F036F80500A02077
:1028000001A9400100F02CF82818201840B2EDE78B
:1028100018110000FFFBFFFFA02010B500214001B0
:1028200000F022F804003220FFF744FE200010BD23
:1028300010B5FFF77FFF002805D1FFF7EDFF002857
:1028400001D1FFF7B7FF10BD10B5FFF78DFE10BD2A
:1028500010B500F0F5F910BD10B500F0FFF910BD8E
:1028600010B500F001FA10BD10B500F006FA10BD69
:10287000F7B50700150006000B4B01911C88083CBA
:10288000A4B2019BD91B8919AC4204D3AAB230006F
:1028900000F03CFAFEBD2200300000F037FA0028BC
:1028A000F8D12D1B3619ECE708000020F7B507001A
:1028B000150006000B4B01911C88083CA4B2019B3B
:1028C000D91B8919AC4204D3AAB2300000F066FAD1
:1028D000FEBD2200300000F061FA0028F8D12D1B67
:1028E0003619ECE70800002010B50020FFF7ACFF18
:1028F000041E0CD1FFF7CCFE000D032801D0FFF71A
:1029000097FF00F0C3F900210248FFF7ADFF200058
:1029100010BDC046000302001FB5002201AB0190AC
:102920001981032019000292FFF736FE05B000BDA1
:102930001FB5002201AB02901981032019000192FA
:10294000FFF72AFE05B000BD73B56B460600DD1D1E
:10295000CF2822D003003B33DBB2012B1DD90B243F
:1029600001212800FFF7E4FF00281CD12B78B34297
:1029700003D0013CE4B2002CF2D10B240121280049
:10298000FFF7D6FF00280ED12B78002B03D0013C97
:10299000E4B2002CF2D1012006E001212800FFF76B
:1029A000C7FF0028DBD0002076BD0000F0B50C008A
:1029B000002785B0009001928023261C9B019C4239
:1029C00001D91B4B1E880A25B6B202AB0121D81CC7
:1029D000FFF7AEFF002808D102ABDB781B090F2BF5
:1029E00010D0013D2DB26B1CEFD100201DE0114B2A
:1029F0001B78002B12D1022103A8FFF799FF0028B2
:102A00000CD0F2E7002DF0D0009B3100D819FFF771
:102A10008FFF0028E9D1019B002BE8D0A41BF719F8
:102A2000A4B23FB2002CC7D1012005B0F0BDC04612
:102A3000145E000078050020F0B585B00AAC25785A
:102A400001AC2070C3380C2800D96BE002F0F8FF0D
:102A5000482936363C3C5A076A6A6A6A3A000B0CC7
:102A600063700B0AA370E17005212F4B481E1B7881
:102A7000002B55D10A002D4D7F3366185742F75D64
:102A80005B007B40013AEB5C012AF7D15B002354E9
:102A900089B22000FFF740FF4342584140B205B0E1
:102AA000F0BD0B0ADBB2002D04D163700023A170CE
:102AB000E370D9E7802252421343F6E700236370A4
:102AC000A370F5E7FF23FAE70A0C62700A0AA27006
:102AD000002222711A0AE1706271A3710821C4E711
:102AE0000B0ADBB2002D09D16370130EE370130CD7
:102AF0002371130AA1706371A271EFE78020404235
:102B00000343F1E70B0C63700B0AA370130E2371E0
:102B1000130C6371130AE170A371E2710921A4E738
:102B2000C1B2B5E70020BAE7780500201A5E0000C0
:102B3000F0B585B006000391302830D8194B1F78C6
:102B400030220023B2425B410A24FFB20293029B6F
:102B5000039A0093310004233800FFF76DFF05004E
:102B6000012805D13800FFF7EFFE0500012813D03A
:102B70000120FFF79FFC0021CF2000910B000A00ED
:102B8000FFF75AFF013CCF20FFF7DEFEE4B2012041
:102B9000FFF790FC002CDAD1280005B0F0BD024B05
:102BA000CDE7C046165E0000175E0000F0B50600D7
:102BB00087B00F00FF2827D81F4B1B78FF22DBB2FE
:102BC00002930023B2425B410A250393039B002238
:102BD0000093310004230298FFF72EFF0400012820
:102BE00014D10298FFF7B0FE040001280ED1039A19
:102BF000042105A8FFF7DAFE0400012806D1059B91
:102C00003B60200007B0F0BD0C4BD6E70120FFF77A
:102C100051FC0021CF2000910B000A00FFF70CFFB0
:102C2000013DCF20FFF790FEEDB20120FFF742FCFF
:102C3000002DCBD1E5E7C046185E0000195E00000C
:102C400013B50024CF202300220021000094FFF7B9
:102C5000F3FECF20FFF778FE200016BD07B501A9CF
:102C6000FFF7A4FF01980EBD10B5FFF79FFF0023EB
:102C7000012800D0063B180010BD10B5FFF758FF23
:102C80000023012800D0063B180010BD002313B517
:102C90001C4C01A91C4801932370FFF787FF0028F3
:102CA00014D02378002B1BD0802069464001FFF709
:102CB0007DFF002822D01448FFF7D0FF7023502159
:102CC000984301431048FFF7D8FF07E0012301A90B
:102CD0000D482370FFF76AFF0028E2D1002016BDDF
:102CE0007C235021019A08489A4311430191FFF730
:102CF0001FFF0028F2D001232370D5E706204042B1
:102D0000EDE7C0467805002024E80000F0B5140087
:102D10000A27002687B003900291012C01D12600DA
:102D200001340025230000952A000399C820FFF7ED
:102D300083FE012816D00120FFF7BCFB0021CF2025
:102D400000910B000A00FFF777FE013FCF20FFF74D
:102D5000FBFDFFB20120FFF7ADFB002FDDD1062008
:102D6000404212E0C820FFF7EFFD0128E3D1002E1A
:102D70000DD02A00210005A8FFF718FE02AB1B7B2F
:102D8000029A13700128D6D1002007B0F0BD32009E
:102D900021000298FFF70AFEF4E700000A23F0B5CD
:102DA000160089B0049005910293012E00D10136DE
:102DB0000027330000973A000499C720FFF73CFE34
:102DC000012849D1C630FFF7BFFD012844D13400A6
:102DD00007AB1F80039080239B019C4256D825009F
:102DE00003230B2004AA8018102252421343039994
:102DF0000370FFF791FD00282ED1059B2900D819FB
:102E0000FFF78AFD002827D1244B1B78002B1DD00B
:102E1000641BEF19A4B23FB2002CDCD11F4B07A8F2
:102E20001D786B1E9D410235A9B2FFF781FD002878
:102E300012D107AB5D196B1E1B78002B0CD1023D24
:102E40002B78C32B08D1200009B0F0BD022107A8C0
:102E5000FFF762FD0028DBD00120FFF72BFB0021EC
:102E6000CF200B0000910A00FFF7E6FDCF20FFF70F
:102E70006BFD0120FFF71EFB029B013BDBB20293BF
:102E8000002B00D091E706204042DDE78025039B20
:102E9000AD01002FA5D00223A3E7C046780500208E
:102EA00037B50025154829000195FFF7DDFC0621FF
:102EB00004001348FFF7D8FC012124181148FFF73C
:102EC000D3FCE4B2241829000F48FFF7CDFCE4B28C
:102ED000241881210D48FFF7C7FCE4B2241864B21E
:102EE00001A90B48FFF7BCFC041964B2002C02D105
:102EF000019B012BF4D120003EBDC0460802010019
:102F00000C020100140201001C0201000402010075
:102F10001802010037B5042105001748FFF7A4FC8B
:102F2000052104001548FFF79FFC012124181448CF
:102F3000FFF79AFCE4B2241812491348FFF794FCF7
:102F4000E4B2241881211148FFF78EFCE4B2241862
:102F500064B201A90E48FFF783FC041964B2002C87
:102F600006D1019B012BF4D10648FFF775FC00E068
:102F70000020287020003EBD080201000C02010064
:102F800014020100841000001C0201000402010070
:102F900018020100F7B506000C001700FFF780FFCC
:102FA000D0203A0021000003FFF780FC0021C4B2CA
:102FB00039480191FFF758FC0223310C320609060B
:102FC0001343090C1943FF2336021B041E403143EF
:102FD00005003248FFF748FC0F212D183048FFF755
:102FE00043FCD021EDB22D1809032E48FFF73CFC1D
:102FF0008421EDB23F022D1839432B48FFF734FCF2
:10300000EDB22D186EB201A92848FFF729FC8619E8
:1030100076B2002E02D1019B012BF4D16B46DD1C50
:103020002800FFF777FF30182018012440B200284D
:1030300031D12800FFF76EFF2F7806002740F6D128
:10304000390015480197FFF70FFC042105001348CC
:10305000FFF70AFC01212D181148FFF705FCEDB21E
:103060002D1839000F48FFF7FFFBEDB22D18812115
:103070000D48FFF7F9FBEDB22D186CB201A90B4812
:10308000FFF7EEFB041964B2002C02D1019B012B67
:10309000F4D1341960B2FEBD080201000C02010037
:1030A000140201001C0201000402010018020100C8
:1030B000002337B505001E480193FFF7D5FB0B230E
:1030C000290C2A0609061343090C1943FF232D0274
:1030D0001B041D40040029431648FFF7C5FBA5212A
:1030E00024181548FFF7C0FBE4B224181F21134829
:1030F000FFF7BAFBD021E4B2241809031048FFF708
:10310000B3FBE4B2241885210E48FFF7ADFBE4B20F
:10311000241864B201A90C48FFF7A2FB041964B299
:10312000002C02D1019B012BF4D120003EBDC046F2
:10313000080201000C02010010020100140201004B
:103140001C0201000402010018020100F8B58025EC
:1031500006000F0014002D02AC4215D98021380062
:103160000902FFF7A5FF00281AD1D0202A0031005C
:103170000003FFF77DFB002812D10A4BE4188023DF
:103180001B02FF18F618E7E721003800FFF790FF51
:10319000002805D1D020220031000003FFF768FB92
:1031A000F8BDC0460080FFFFF8B506000D00140012
:1031B000CBB2002A02D10C204042F8BD002B20D017
:1031C00080277F00FF1A92B2BC4200D9BAB2310008
:1031D0002800FFF7DFFE0028EDD1BC420ED2002010
:1031E000EBE7802327005B009C4200D91F00BAB2A6
:1031F00031002800FFF7CEFE0028DCD1F619ED19CA
:10320000E41B002CEDD1EAE7F0B50024050087B0FF
:1032100004AB01900391DC70019B039A9B18AB42B5
:1032200002D8200007B0F0BDFFF73AFE04ABDE1C69
:1032300007003000FFF76EFE3F183C190027E3B28D
:103240003900264802930597FFF70EFB2B0020223A
:103250000A33190C0400090618060243090C11432D
:10326000FF221B021204134019431D48FFF7FCFA0A
:103270000F2124181B48FFF7F7FAE4B2241839008D
:103280001948FFF7F1FAE4B2241884211748FFF730
:10329000EBFAE4B2241864B205A91548FFF7E0FA86
:1032A000041964B2002C02D1059B012BF4D1029BBE
:1032B00030001C19FFF72EFE0127E4B2241864B277
:1032C000002CAED13000FFF725FE337804003B42DE
:1032D000F6D180235B01ED189EE7C046080201008D
:1032E0000C020100140201001C0201000402010092
:1032F00018020100704710B5040002F015F9200013
:1033000010BD0000F8B504000C4B0500083308C4DC
:103310009B23FF279B00C6180021200021706770A7
:103320002181E1612162616228301022383402F08B
:103330006CFCB442F0D12800F8BDC0461C5F000010
:1033400010B5054C2000FFF7DDFF044A04492000BA
:1033500002F06EFB10BDC0467C050020000000207E
:10336000F532000070B506000C008D18AC4207D095
:10337000336821789B683000984720700134F5E766
:1033800070BD7047704710B50400406800F052FAF5
:103390000023237610BD10B5406800F070FA10BD10
:1033A000F8B5050040680C0000F064FA2B68E7B23D
:1033B000260A9B68012810D139002800FF2798476A
:1033C0002B68BC4304439B683100280098470302E4
:1033D00020003840184380B2F8BD310028009847DB
:1033E000FF262B680002344004439B683900280004
:1033F0009847B4432043EEE710B5040002F094F878
:10340000200010BD10B54B1C0BD0102909D0EFF3D4
:10341000108472B6102905DD02234376002C00D1FA
:1034200062B610BD0123427E1A43427618224A43F7
:103430000449891816228A569340C2691343C3610E
:10344000ECE7C0466C5F00004B1C17D0102915D06C
:10345000437E9B0712D4EFF3108272B618234B43BE
:103460000749C9180123897D49B28B40C169994335
:10347000C16100D14176002A00D162B67047C046D2
:103480006C5F0000437E002B05D09A0704D5837E35
:10349000002B00D062B67047DB07FCD5C369024A37
:1034A0009BB2D360F7E7C04600180040037E002BB4
:1034B00004D143768376C3610133037670470000FD
:1034C0007FB5036902AE04000D00029172608B4269
:1034D00003D1828AB3889A4226D020000622310086
:1034E000103002F089FB606800F0BBF97379E17A73
:1034F000013B581E8341227B00936068002300F04B
:1035000055FA33790021013BDBB2022B01D8074A7F
:10351000D15C074B2A009D4200D91A00606800F078
:1035200071F9606800F093F97FBDC0462C5F000020
:1035300000366E0170B518260400FFF7B7FF3300A0
:103540000821207A0D4D4343EB18595602F0C2F979
:1035500033000821A07A4343EB18595602F0BAF918
:103560000821607A4643AD19695602F0B3F9044B5D
:10357000200006CBFFF7A4FF70BDC0466C5F0000C3
:103580000808002007B5437E00910192002B07D068
:103590009A070AD5EFF310835A425341837672B6E5
:1035A0000099019AFFF78CFF07BDDB07F8D5C369C7
:1035B000014A9BB29360F3E7001800400E4A0F4B9C
:1035C00010B5012113600023517113710C4A0D488D
:1035D000083202600C4A036142600C4A03750281A2
:1035E0001422417503768272C372094A0333094972
:1035F000037302F01DFA10BD0808002000093D0009
:10360000305F0000E8070020600A0020151300006A
:10361000000000208533000010B5024801F0C6FC10
:1036200010BDC0461008002010B5024801F0BEFCD5
:1036300010BDC046D408002010B5024801F0B6FC09
:1036400010BDC04698090020F7B51C491C4800F081
:1036500053F81C491C4800F04FF81C491C4800F066
:103660004BF81C4F1C49380000F046F81B4E1C4913
:10367000300000F041F81B4D1B49280000F03CF8D9
:10368000012400233900019300940A330B221748C8
:1036900001F018FC00233100019300940C330D223B
:1036A000134801F00FFC0323290000930194163303
:1036B0001A22104801F006FCF7BDC046000800427F
:1036C0005C0A0020000C0042600A0020001000424A
:1036D000640A0020680A0020001400426C0A0020DE
:1036E00000180042700A0020001C00421008002050
:1036F000D408002098090020016070479446F0B576
:103700009E1E721E96416246056892072F68360615
:103710003A4332432A60072505AC24780068A401A7
:103720002940214342680024022B00D05C0311434E
:1037300021434160F0BD30B5C0250368AD031C686E
:1037400012052A402243C0240904A4022140114347
:10375000196003685A6814435C6030BD0123026835
:1037600011680B43136003681A68D207FCD4DA6946
:10377000D207F9D470470223026811680B43136023
:103780000268D3699B07FCD470470268137E9B07CD
:10379000FCD57047002203685A8370470368187E7F
:1037A0004007C00F70470368187EC0097047802328
:1037B00002685B42117E0B43137670470368588B97
:1037C0008007C00F704702230268518B0B4353835D
:1037D00070470368187EC007C00F70470368188DD4
:1037E000C0B2704703681A7ED207FCD589B20120A7
:1037F00019857047012203689A7570470122036892
:103800001A75704770B5012604684B083340314083
:10381000256809075B070B432B43236004685100AD
:10382000034802F017F90138C0B2207370BDC046DA
:10383000006CDC020123026811680B43136003680B
:103840001A68D207FCD4DA69D207F9D47047022388
:10385000026811680B4313600268D3699B07FCD4AC
:1038600070470368DA699207FCD402211A688A4318
:103870001A607047036818684000C00F70470268FC
:10388000936A5B0A5B021943916203681A7E5207CE
:10389000FCD5986AC0B270470368214A30B593429C
:1038A0002FD0204A93422FD01F4A93422FD01F4A35
:1038B00093422FD01E4A93422FD01E4A93421FD1CB
:1038C0000E2319220121032599401B48C0240160C1
:1038D00099082B40AB40FC359D4089000918A40095
:1038E0000859A843C0259D402B0003430B5180235A
:1038F000DB011A43114B5A805A7852B2002AFBDB83
:1039000030BD09231422DDE70A231522DAE70B2351
:103910001622D7E70C231722D4E70D231822D1E76C
:1039200000080042000C0042001000420014004257
:1039300000180042001C004200E100E0000C0040C2
:10394000F8B504000F0016001D00FFF7A5FF2000CA
:10395000FFF704FF1C21BB000B4071072268090C14
:103960000B431360842322689375012F1AD1102111
:10397000012E00D008390C4B69431868C00002F0D2
:1039800069F80722216802408B895203DB04DB0CB3
:1039900013438B81226803049089DB0C400B4003A6
:1039A00018439081F8BDC0461C000020F7B5060002
:1039B000019308AB1F780D001400FFF73BFF3000A8
:1039C000FFF76AFFC022240592031440BA070C27B0
:1039D00017433C43C0270722BF022D0433683D40F4
:1039E00025431D60019B316813401A0080239B0210
:1039F00013434B60F7BD0020704770B50F26CB1DF9
:103A0000013902003240D5B22C0000093034092AB5
:103A100000DD07341C70013B8B42F2D170BD000009
:103A200010B50C000B4B1868FFF7E7FF21000A4B9D
:103A300008311868FFF7E1FF2100084B10311868C2
:103A4000FFF7DBFF2100064B18311868FFF7D5FFA1
:103A5000202010BD0CA0800040A0800044A0800069
:103A600048A0800008B4024B9C46103808BC604750
:103A7000213A00003F20704713B56B460268D971A8
:103A80000733546819000122A04716BD70B50A26F5
:103A90000B7892B06E44023305000B703C2200217B
:103AA000300002F0B2F8394801AC069038482421C1
:103AB0000790062020776846364AA1742281364A4C
:103AC000364BA281FD3AFF3A8018C1776846233908
:103AD0000630C17768460730C17702A8C177072052
:103AE000F277032608316944C87703A9CE771021FD
:103AF0002B366E443170092621851F3169440E70C2
:103B00000CA9053E0E7033212380022369440B70FB
:103B100006360DA90E7022493536A1863B216E442A
:103B2000307010A86274E27702703D3269446A44D2
:103B30000B70137040210022E37023716371A37333
:103B400041336B44218719705A702B7DC039A370A3
:103B5000A37263770133DBB2A3776A7D0B200D007C
:103B600068441543C5773120684403703A23501CDC
:103B70006B441870412302320A436B441A702100CF
:103B80004222084800F090FD12B070BD10010424DC
:103B9000020605240904000001020000080B0000D1
:103BA00007050000D00A002008B4024B9C461038DC
:103BB00008BC60478D3A000070B5027D0B790C009F
:103BC00000259A420BD10B784E78A12B09D1212EDA
:103BD00005D107221B491C4800F066FD013528006D
:103BE00070BD212BFBD1202E22D10722154916486A
:103BF00000F09CFC9622134BD200196891421DD113
:103C0000DB79DB071AD4FA2001F0C4FE00210E484C
:103C100000F052FE0125232EE1D1E378A2781B02A9
:103C200013430A4A00210848136000F045FED6E716
:103C3000222EEFD18A78034BDA71DBE701F0B4FE74
:103C4000E4E7C04610000020D00A00200C0000204D
:103C500008B4024B9C46103808BC6047B93B0000D2
:103C600010B5417D006A013100F098FB034B1B68E1
:103C700001335A1E9341181810BDC0461800002089
:103C800010B5417D006A023100F09EFB10BD10B5F9
:103C9000417D006A023100F065FB10BD70B50D007A
:103CA000417D0400130002312A00006A00F052FC3A
:103CB000002801D10123636070BD000010B5054CE0
:103CC00023685A1C04D103685B699847030020608D
:103CD000180010BD18000020074A0300106810B536
:103CE000411C03D001235B42136010BD597D186A4B
:103CF000013100F0DFFBF8E71800002000207047DA
:103D000070477047FA239B0010B583600F4B002269
:103D1000C3820300283383610D4B04004260C261FB
:103D20001800403323610830631D21622060DA7778
:103D30008323A362813BE3628033236301F0A2FA11
:103D40002100103101F06FFA200010BD03020000C5
:103D5000CC620000022110B5094B1A68437D5B015B
:103D6000D318FF339C7A21439972437D0133DBB230
:103D70005B01D3180122FF33997A0A439A7210BD6E
:103D8000880F00207047000010B502490248FFF775
:103D9000B9FF10BDD00A0020740A0020704710B58A
:103DA000040001F0C1FB200010BD0000F0B5822925
:103DB00019D1C3B2294D5A01AA189169284C800122
:103DC0000C40C021890521439161264908334018E0
:103DD0007021506128685B011A5C8A43110030220F
:103DE0000A431A54F0BD0029FCD1C026C1B21B4CB5
:103DF0004B01E3189A681A4DB6052A4032439A607F
:103E0000194A800182185A600A000727246808327C
:103E10005201115DB9430F000121394311559F69CA
:103E200010493D4040182E439E6158617020115D3D
:103E30008143080010210143115599680B48A218CD
:103E4000084080214903014399609968890B8903DF
:103E50009960402311790B431371C3E7880F002049
:103E6000FFFFFF8FFC0A0020BC0C0020FF3F00F08A
:103E7000EFF3108303600123436072B67047036859
:103E8000002B02D162B6BFF36F8F704773B5836D9D
:103E90000400002B1BD10600A83635786846FFF7D2
:103EA000E7FF019BEDB2013B02D33578EDB2FAE7B3
:103EB00068460193FFF7E3FF002D01D1002076BD96
:103EC0002300A4331868A0342368C01AF7E76846B3
:103ED000FFF7CEFF22000025019BF432013B02D305
:103EE0001578EDB2FAE768460193FFF7C8FF002D99
:103EF000E4D02300F0331868EC34E5E710B5436DE7
:103F00004468DBB25A01A218916809480833084096
:103F1000802149030143916091685B01890B89030A
:103F200091602268D318402219790A431A7110BD92
:103F3000FF3F00F0F7B5436D4268DBB219000400A3
:103F40000831106849014118C979C90711D55B01C9
:103F5000D21893689B049B0C0CD12000FFF7CEFF76
:103F600063681A68636DDBB208335B01D3187F2284
:103F7000DA71F7BDE16D002923D12100A4310B6076
:103F800023000125AC33E56568465360FFF770FFF9
:103F9000260020002100019BA836013BF430F531BA
:103FA0005A1C33D0357002785F1ED2B20A700A787C
:103FB000002A04D120000193FFF7A0FFE8E73B00AF
:103FC000EEE72100F0310B600023E365230060334E
:103FD00053606846FFF74CFF0125260020002100B2
:103FE000019BF436013BA830F5315A1C0ED03570D8
:103FF00002785F1ED2B20A700A78002A04D120002B
:104000000193FFF77BFFE8E73B00EEE7684601938B
:10401000FFF735FFA4E737B56B46DC1D00230D0025
:10402000237001F02FF9210001F0BAF82B6818185D
:10403000286020783EBD00002023F7B5474A0500E0
:10404000D1690F200B43D361012245490B781343FB
:104050000B70444B19788143197006211C78214359
:10406000197041490C7822430A701A7802401A707C
:10407000602219780A431A703C4B3D4A5A805F7897
:10408000FF09FCD13B4801F0CFF901233A4C3B4EEC
:104090002268300011780B431370802239005200DF
:1040A00001F0B3FD22689378DB07FCD456621F262B
:1040B000334B1B68590B980C9B01314030405B0F10
:1040C000B14200D105211F2800D10238072B00D1B1
:1040D000043B31408901178D01912A4930400F403E
:1040E000019939431185118D0700B1430800384308
:1040F0001085118D1803244B7F260B4003430C20A1
:1041000013850823D17881430B430321D3702268A0
:10411000D3788B4301390B43D37022681378334033
:104120001370042322681678334313702268C12465
:104130001389A40083431548138103591B021B0AEA
:104140000351802303601378114819430123117030
:104150002B700021FFF716FEF7BDC046000400409B
:10416000584400413C44004159440041000C004087
:1041700006400000C94A0000880F00208C0F002074
:10418000246080003FF8FFFFFF8FFFFF00E100E0A9
:10419000740A00200078002810D00121084B1B6809
:1041A0001A898A431A810822198B0A431A83042226
:1041B000198B0A431A830022024B1A607047C046CB
:1041C000880F0020800F002010B50F4A93699B0BC9
:1041D0009B03936113680222FF331A729879823A23
:1041E00002439A711A7A9207FCD57F24074A21402C
:1041F000937A0800A3431900802301439172917AB6
:104200005B420B43937210BD880F002000500041A9
:1042100010B50C0001F036F8210000F0F4FF002882
:1042200004D1034A93699B0B9B03936110BDC04665
:10423000880F0020F8B50D00832A19D1CBB23B4C72
:104240005A01A21891693A48AD010840C021890578
:1042500001439161374920686D1870210833556119
:104260005B011A5C8A43110040220A431A54F8BDCC
:10427000022A55D1304A8B009858002802D0036892
:104280005B699847F82001F04BF90400274E2B4B4F
:104290004660036040220021083001F0B6FC220095
:1042A0000023A032A3646565E3642365A365E36529
:1042B0005360D3641372136013654C3213725372DC
:1042C000FF222B001340590171188868184F0833DA
:1042D0000740C020800538438860306807265B01AE
:1042E000195CAD00B1430E00032131431954230082
:1042F000616D606811404901411860334B60616D28
:1043000063680A401B6852019B180122FF33997AA7
:1043100020000A439A72FFF7F1FD074B5C51A6E7B4
:1043200011002800FFF742FDA1E7C046880F0020DA
:10433000FFFFFF8FFC0A0020D40A00202463000046
:1043400070B505000124064BA200D258002A06D001
:10435000210028000134FFF76DFF0A2CF3D170BD56
:10436000A80A00200B4BCAB20B488901C918530197
:10437000C318596199690832890B890399610368E7
:1043800052019A180223D3715179823B0B43537126
:104390007047C046FC0A0020880F0020084B8A00A6
:1043A000D05810B5002803D003689B68984710BD0B
:1043B000C9B2044B4901591888688004800CF6E79B
:1043C000D40A0020880F002010B50C00FFF7E6FF8C
:1043D00000280CD0064BE4B21B68083464011C1999
:1043E000802362795B42134363710223E37110BD42
:1043F000880F0020F0B51C002A4B85B01B68070011
:104400000D000292002B4AD0274B8A00D05800287A
:1044100008D0036822005B680299984704002000D6
:1044200005B0F0BD3800FFF7B9FF844204D9290078
:104430003800FFF7B3FF04000121EBB21B4E0393DA
:104440005B010193F21893689B0B9B039360019AA5
:10445000336802989B18FF335A7A0A435A72144BF6
:10446000A901C918220001F0C7FB002CD7D02900F0
:104470003800FFF793FF0028D1D14021039B326819
:1044800008335B01D3181879014319710121D971DF
:10449000019BD318FF339A7A0A439A72BFE701242B
:1044A0006442BCE7800F0020D40A0020880F00205F
:1044B000BC0C002013B56B46DC1D22000123FFF766
:1044C00099FF012801D1207816BD01204042FBE769
:1044D00070B5CBB2124A13485C01890189180219E0
:1044E00051609168104D08330D40802149032943E4
:1044F000402591609168890B8903916001685A0198
:104500008A1816793543157195796D06FCD55B01CE
:10451000C918CB79DB07FCD500198068C0B270BD23
:10452000BC0C0020880F0020FF3F00F070B50D008C
:1045300000211400FFF7CCFFA04200D92000002387
:104540000349A34203D0CA5CEA540133F9E770BDC2
:10455000BC0C0020F0B51E003A4B85B01B680F0064
:104560000192002B35D08023DB019E4231D80025FB
:10457000354B8A01D3180293002E2CD0334B1B6885
:104580000393FF233B401C0000930834039B64010A
:104590001C19A379DB0921D02D4B2E49186801F095
:1045A00059FA2D4B1721584301F054FA2B4BE2795D
:1045B000920713D4DA5D002A01D10138F7D2012223
:1045C000DA55009B5A01214B9B189A69920B920372
:1045D0009A6101256D42280005B0F0BD00221F4BF5
:1045E0003400DA553F2E09D9009B40245A01174B5D
:1045F0009B188022996912060A439A612200019948
:10460000029801F0F9FA009BA1045A010F4B890CA2
:104610009B18029A2D195A619A69361B920B9203C4
:104620000A439A61009B039A08335B01D318022264
:10463000DA715979823A0A435A71019B1B19019325
:104640009AE7C046800F0020FC0A0020880F002057
:104650001C00002040420F0070110100F10A0020F0
:1046600070B50D001C000D4BAE01F61811003000A6
:10467000220001F0C1FAEDB209496D014D196E61D8
:10468000AB69084A20001340AB61AB69A2049B0BE5
:10469000920C9B031343AB6170BDC046FC0A002023
:1046A000880F0020FF3F00F0F7B5104B01901B78FA
:1046B0000F001500002B0CD10D4B16001C78002CA0
:1046C00009D00C4E0C4834882018641901F094FA73
:1046D00034802800FEBD002EFBD03A1933000021A3
:1046E0000198FFF7BDFF2418361AF4E77C0E00206E
:1046F0007D0F00207E0F00207D0E0020F8B50F00FA
:1047000016000024012A26D9100001F061FA0500E4
:10471000380001F03DFB03230222013040002870E5
:104720006B7096420DD9397800290AD0531CDBB240
:104730000137A9549E4203D00232EC54D2B2F0E7C2
:10474000320029000548FFF7AFFF441EA041C4B264
:10475000280001F047FA2000F8BDC046D00A00202A
:10476000F0B50024012685B0184B0F0069461E7075
:1047700005000094FFF74FFC154B01A90B806A3B25
:10478000FF3BCB715A330B72009B8C7109334B800A
:104790000E4B4E7108711C703A00092F0FD00D4F4F
:1047A00009223E700C4E280000943480FFF77CFFF5
:1047B00069462800FFF72FFC328808493C70280022
:1047C000FFF772FF012005B0F0BDC0467C0E00204F
:1047D000090200007D0F00207E0F00207D0E0020CA
:1047E00070B5CE7892B005000C00022E0BD18B79FB
:1047F000C9792C4809021943FFF7B2FF411E8841CD
:10480000C0B212B070BD00F03DFD210000F0DCFC34
:10481000002803D0C117081AC00FF2E7012E0ED1ED
:10482000E279A37912021A431F49112A13D8D2B28E
:10483000002A10D02800FFF737FF0120E1E7032E00
:10484000DFD1A378002B08D1E279A37912021A43B1
:104850001649032AEBD90A78ECE7022B08D1E27952
:10486000A379120212491A432800FFF747FFC8E74D
:10487000012B05D1E279A37912021A430D49F3E71E
:10488000032BBED14122010001A801F0BEF900F0C6
:10489000F9FC01A900F0A8FCE279A37912021A43FD
:1048A00001A9E1E7D00A00205B6300004E6300002D
:1048B0004063000052630000CBB204495B01C91899
:1048C0008B699B0B9B038B617047C046880F002050
:1048D00037B5050048780C000B2810D801F0B0F867
:1048E000061B0F2B0F404561494C5A5D097801AA00
:1048F000002906D1022311802800FFF7B1FE012014
:104900003EBD00231380284B1B78012B00D1137070
:1049100002230021F0E78A780023012A03D101AAAB
:104920001380224BF0E7204A1370214A93699B0BB6
:104930009B039361E3E78C78012C06D100211B4B8C
:1049400001AA1C7011702300D6E70120002CD7D1DA
:10495000154B174A187093699B0B9B039361CFE724
:1049600089782800FFF730FCC9E72800FFF738FFF7
:10497000C6E701230F4ACCE70B780020DB06BFD146
:104980002800FFF7DDFCA2780A4B0B481A60FFF7FE
:10499000E1F9CAE70123094ABBE78A78074B1A60A5
:1049A000C3E70020ACE7C046F00A0020F80A002068
:1049B000880F0020800F0020740A0020840F002040
:1049C0003A4BF7B51E780500002E5FD1384C2368AE
:1049D0009A8B12070DD5082231009A833000FFF719
:1049E000E5F910222368FF33997A0A439A72314B12
:1049F0001E6023689A8B520701D504229A83FF33E5
:104A00001A7A920603D52022597A0A435A721A7AE0
:104A1000D20623D569460800274AC0CAC0C0A2688A
:104A2000920B9203A2604022587902435A7160238C
:104A30000A7828001A422AD1FFF74AFF2368FF3379
:104A4000002827D08022997952420A439A711A7A13
:104A5000520603D54022597A0A435A727F2601250D
:104A60002368FF331E722F00236808377F01DB198C
:104A7000DB79002B07D0114BAA00D05800280DD0AD
:104A800003681B6898470135082DECD1F7BDFFF787
:104A9000BFFBD3E720210A4A9171D8E729000948D2
:104AA000FFF72FF92368DF19FE71ECE77D0F002077
:104AB000880F0020800F0020BC0C0020D40A0020AA
:104AC000FF500041740A002010B50248FFF778FF3C
:104AD00010BDC046D00A002080235B000380002365
:104AE000436007330372704783000148C018704762
:104AF000A80A0020836C402B09D03F22036CC154CC
:104B0000036C013313400364836C01338364704787
:104B1000F7B505006846FFF7ABF900264022019B78
:104B2000013B02D32E6D961BFAE768460193FFF70F
:104B3000A6F9AB6D6846002B4FD1FFF799F9290014
:104B4000019BA831013B5A1C0CD00C785A1EE4B2D0
:104B5000002C05D168460193FFF791F92000FEBDB6
:104B60001300F0E7684601930024FFF788F92A0054
:104B70002900A0321368A431B4420ED008689842CC
:104B80000BD92800591CEB181160603319780830D4
:104B9000C9B2FFF7AFFF0134E9E709689942DDD1F7
:104BA000002313600133AB656846FFF761F92F00FE
:104BB0002A000021019BA837013BF532581CC9D0BF
:104BC000397010785E1E002805D0117028000193FE
:104BD000FFF794F9EBE73300F0E7FFF749F9290015
:104BE000019BF431013B5A1C06D00C785A1EE4B2EA
:104BF000002CAFD01300F6E7684601930024FFF7BE
:104C00003EF92A002900EC321368F031B44202D098
:104C1000086898421DD8096899429FD100236846C8
:104C20001360AB65FFF724F92F002A000021019BD8
:104C3000F437013BF532581C00D18BE739701078FE
:104C40005E1E002811D0117028000193FFF756F95D
:104C5000EAE72800591CEB181160AC3319780830CA
:104C6000C9B2FFF747FF0134CBE73300E3E710B5E4
:104C70000400FFF74DFF206D10BD10B50400FFF7D5
:104C800047FF236D002B03D0E36CE418207A10BD9E
:104C900001204042FBE7F7B517000E000400FFF7C4
:104CA00037FF6846FFF7E4F83F2200259446019B52
:104CB000013B5A1C19D0BD4215D2226D002A12D0D8
:104CC0000121226D4942002A0AD06046E26CA218F6
:104CD000117AE26C01320240E264226D013A2265EF
:104CE00071550135E7E7013BE3E768460193FFF7BC
:104CF000C6F82800FEBD0000014B024A1A6070474A
:104D0000880F0020005000410120704710B5036853
:104D1000014A1B6A984710BD13040000C06D70471C
:104D2000A83003684020C01A7047C36D002B03D021
:104D3000836DC018007D704701204042FBE710B52D
:104D400004000069FEF70AFD002322006365A0321B
:104D5000A365E365A83413605360236010BD0200AF
:104D600010B5A8321368002BFCD10069FEF70DFDC9
:104D700010BDF02001403039484248417047F023CF
:104D80001B011940802306209B0099420AD0013361
:104D9000FF330130994205D0802302385B009942ED
:104DA00000D0002070470F2001400020012903D0CF
:104DB0000239481E8141481C704700000300F0B5CD
:104DC000182685B00391AC3304001878330008210D
:104DD0004343334D1700EB18595600F07BFD230079
:104DE000AD331878330008214343EB18595600F0CF
:104DF00071FD2300AF331B78022B0AD12300C0338F
:104E00001878FF2805D008214643AE19715600F0E6
:104E100061FD2600B0363078FF2819D0012100F05E
:104E2000E1FC1822210033781E485A43AB56B431B6
:104E3000DB01181808601C49AD185B18210001221D
:104E4000B8310B6069688A402100BC310A601A6081
:104E50000122039B11002069FEF772FD390020003A
:104E6000FFF78DFF390005002000FFF79CFF390098
:104E700006002000FFF77DFF330000902900206925
:104E80000122FEF73BFC2300AE331A7859782069E3
:104E9000FEF751FC2069FEF76EFC05B0F0BDC04680
:104EA0006C5F0000184400411444004110B54022DA
:104EB0000021040000F0A9FE0023200023646364A5
:104EC000A36410BDF7B51D0008AB1B780400009368
:104ED00009AB1B781600019300234360FA239B0063
:104EE00083600E4B0F00083303601430FFF7DEFFC2
:104EF00020006030FFF7DAFF6A4623001278AC33F7
:104F000027619A706A4612791E70DA7022005D700D
:104F1000FF23B032200013701374FEBD70630000D5
:104F200037B5EFF3108300930123019372B63F244A
:104F3000019B013B5A1C0FD0826C5D1E402A09D098
:104F4000026C8154026C013222400264826C013294
:104F50008264EEE72B00EDE768460193FEF78FFFD2
:104F600037BD13B5EFF3108300930123019372B69D
:104F7000019B5A1E0192002B14D0836C002B0ED083
:104F80003F22436CC45C436C013313404364836C25
:104F9000013B83646846FEF772FF200016BD0124C2
:104FA0006442F7E76846FEF76AFFF6E710B50400CB
:104FB0000069FEF703FC002805D02069FEF70EFC0F
:104FC0002069FEF700FC2069FEF7E8FB002818D0F6
:104FD0002069FEF703FC010020001430FFF7A0FF5A
:104FE0002300B0331B78FF2B0BD04023E26D9B1ABC
:104FF000092B06DC23002200B433BC321B68126884
:105000001A602069FEF7E5FB00280CD02300A833C6
:105010001B68002B13D020006030FFF7A2FFC1B245
:105020002069FEF7DFFB2069FEF7BDFB002805D0F5
:105030002069FEF7BCFB2069FEF7ACFB10BD2069C0
:10504000FEF7DCFBEFE70000F8B5040000690D0097
:105050002600FEF7BEFBA836002802D03368002BDE
:1050600031D00F273368402B23D1EFF31083012277
:1050700013420FD1164B5B68DB05DB0DF2D0103B02
:105080005BB2002B0FDA3B40083B9B08114A9B00A8
:105090009B181B682069FEF79CFB0028E2D02000CB
:1050A000FFF784FFDEE79B08C0330B4A9B009B5849
:1050B000F0E7200029006030FFF732FF2069FEF79B
:1050C00099FB0120F8BD29002069FEF78BFBF8E76A
:1050D00000ED00E01CED00E000E100E010B5040090
:1050E0001430FFF73EFF2300B0331B78FF2B0AD0AC
:1050F0004023E26D9B1A0A2B05DD2300BC34B83334
:105100001B6822681A6010BDF8B50024094B1B68A3
:10511000A34200D8F8BD084E084FA5003369EA59EC
:105120001A4204D0064BEB589847EB5933610134CF
:10513000ECE7C0461411002000180040D0100020F9
:105140008C100020F7B5C31D0193002306000D004D
:10515000041D009321780A22280000F023F92E2153
:105160000700280000F0CDF8009B3F18DB190093E2
:10517000019B01349C42EDD1F17928000A2200F014
:1051800011F9009B1818FEBD034B044A0833136045
:10519000002353607047C046A4630000181100202C
:1051A00070B50E0000254468002C0BD02368310038
:1051B0005B6820009847002802DB2D18E468F3E7BD
:1051C00001256D42280070BD70B50D004468002CAB
:1051D00008D0236829009B6820009847002802D146
:1051E000E468F4E7200070BD70B50D004468002C41
:1051F00007D0236829002000DB689847E4682D1851
:10520000F5E72C7070BD70B50D004468002C08D017
:10521000236829001B6820009847002802D1E46811
:10522000F4E7200070BDF8B542788B790D00017A63
:105230009B18040000208B4222DC6368834219D152
:105240006560002623786A71EA792B719B182370B8
:10525000AB79B34213D9AB68B7006078DF19FFF7B9
:1052600043FC3B68013603606378F6B20133637038
:10527000EEE70B00D9680029FBD1DD60E1E70120F2
:10528000F8BD000070B50126054D064C2B68334271
:1052900003D12000FFF720FC2E60200070BDC04627
:1052A0002011002024110020F7B506000D000C008D
:1052B0008B180193019B671B9C4207D033682178B0
:1052C0001B683000984701340028F3D13800FEBD38
:1052D00070B5040008000D0000F05AFD23680200BC
:1052E00029005B682000984770BD10B50B1E02D0E6
:1052F000FFF7EEFF0300180010BD10B5FFF7F5FF34
:1053000010BD10B503681B68984710BD10B5024961
:10531000FFF7DEFF10BDC046B063000070B50400AB
:10532000FFF7E3FF05002000FFF7F0FF401970BD15
:1053300070B50400FFF7D9FF05002000FFF7E6FF76
:10534000401970BDF0B58BB06B46150000220533D7
:105350000600DA770800012D00D80A2509AC2900DB
:1053600000F0FEFBCAB2130037330700DBB2092995
:1053700002D813003033DBB2013C2370002FEED192
:1053800021003000FFF7B1FF0BB0F0BD10B5002ACF
:1053900004D10368C9B21B68984710BDD2B2FFF7A9
:1053A000D1FFFAE710B5FFF7F1FF10BDFEE70000EF
:1053B000034B10B51B68002B00D0984710BDC046AA
:1053C0003011002070B50F490F4CA14204D100F0FC
:1053D000AFF800F085F8FEE70C4D00238D42F6D0C3
:1053E000CA18E818A24205D3094B8242EFD00949F6
:1053F000002204E0006804331060F1E704C38B422C
:10540000FCD3E4E700000020C00000201864000086
:10541000C00000204811002010B500F05EF8002800
:1054200001D100F04FF810BD014B18607047C04625
:1054300030110020F7B51348012284461249134C5D
:105440008E68636805689B0E1340019288686268E5
:10545000019F920E3A4067463F6893420ED1BD428B
:105460000CD186420AD35B19FA254868AD00861B29
:1054700007486B437043000DC018FEBD3D0013008C
:105480000600E3E73411002010E000E000ED00E04A
:105490005555000070B5041E10D0FFF7CBFF050076
:1054A00000F01AF8FFF7C6FF054B401B9842F7D9EA
:1054B000FA23013C9B00ED18002CF3D170BDC046CF
:1054C000E703000010B5034A13680133136000F0CE
:1054D00073FA10BD341100207047002070477047E8
:1054E00010B500F0D5F800F04FFBFFF7F8FF0120F2
:1054F000FFF7D0FF084C2000FEF79EFD2000FEF7CE
:1055000049FEFCF77BFEFCF715FF044B002BFAD09D
:1055100000E000BFF7E7C046D00A0020000000000E
:1055200010B500F055FB10BD10B500F05BFB10BDD1
:105530001E2270B546484749436893431C3A1343BB
:10554000436008238C6923438B61434C434B9C820B
:105550009C8A14439C82DC681442FCD00124404A9B
:1055600014701578254203D055786DB2002DF8DB04
:1055700001249460547864B2002CFBDB394C5460F5
:10558000547864B2002CFBDB8224E401548054780C
:1055900064B2002CFBDB02249C840E34DD682542BF
:1055A000FCD0314CDC621024DD682542FCD09D8C9F
:1055B0002E4C2C439C841024DD682542FCD0022410
:1055C0009D8C80262C439C844024DD683542FCD091
:1055D000DD682542F9D01024DD682542FCD0002486
:1055E0009460547864B2002CFBDB214C54605478F6
:1055F00064B2002CFBDB1C6A1E4D2C4080251C6213
:105600001C6AAC431C62032393601B4B53605378AA
:105610005BB2002BFBDB0023FF240B72174A4B729B
:105620008B72CB72164B1A60164B174A1B681168A7
:105630009A065B01C90E2340520F12020B4313431B
:10564000124A1385802342681343436070BDC046ED
:1056500000400041000400400C060000000800402B
:10566000000C004001050100B905FF7D040A00009F
:1056700000070300FFFCFFFF03060100006CDC02D3
:105680001C00002024608000206080000040004258
:10569000FA21314B10B51868890000F0DBF92F4B67
:1056A0000138984256D82E492E4A4860C020136AC5
:1056B00000061B021B0A03431362002407238C60AD
:1056C0000B608021136A09061B021B0A0B4313623D
:1056D000FC22254B196A0A431A62FC22196A9201BC
:1056E0000A431A62A022196AD2020A431A62E0B27D
:1056F0000021013400F076F8202CF8D11B4B1C005F
:105700005A7852B2002AFBDB194A5A80194B1A0008
:10571000597EC9090129FBD0E421C90099803F21A4
:10572000D970537EDB09012BFBD0C02300205B0125
:105730001361907000F024F863785BB2002BFBDB00
:105740000D4B0E4A6380D379DB09012BFBD041233B
:10575000537010BDFEE7C0461C000020FFFFFF0095
:1057600010E000E000ED00E000040040000C00400C
:105770001E4000000040004221400000004800425E
:10578000164A00B51300517EC9090129FBD0013822
:10579000042816D81969124A0A400F211A615A784A
:1057A0008A4300F04DF90308060B030011000122A3
:1057B0000A435A7000BD11000322F9E711000222CA
:1057C000F6E7F02311691B050B430F211361537892
:1057D0008B43190002230B435370EBE70040004258
:1057E000FFFFFFF0182330B51D00040045430820DB
:1057F000204A55192856013014D0032912D8080020
:105800006343D156D31800F01BF902280E1B5868C9
:10581000CB010221184A9B181A184032117001223C
:1058200082405A6030BD5868CB010621124A9B184D
:105830001A1840321170012282405A609A61F1E7D1
:105840005868CB0106210C4A9B181A184032117077
:10585000012282405A605A61E4E75868CB01022174
:10586000054A9B181A1840321170012282409A6032
:10587000D8E7C0466C5F0000004400411823F0B533
:1058800008245843114A13181C5701341BD0012611
:1058900035005F688356BD400D4ADB019A18906859
:1058A00005420BD10C00601E8441D21940321078A1
:1058B00034400336A400B04320431070044A9B18C0
:1058C000002901D15D61F0BD9D61FCE76C5F0000C6
:1058D0000044004118224243F8B52C4E0300B21890
:1058E000127A52B2140001320ED0481C00240C2847
:1058F0000AD800F0A5F80720202020202020200B27
:105900000B0B0B00012464422000F8BD092905D1CE
:105910000021D8B2FFF766FF0024F5E70A2902D17B
:10592000D8B20839F6E700240B29EDD1D8B20A39EC
:10593000FFF758FFE8E718204343F2185568F3567D
:105940002C00134ADB016E0817389B18C9B20440BB
:105950009E19002C0DD00F243036327809012240D8
:105960001143C9B25B19317040331A781043187073
:10597000D2E732000F27303216785B19BE4331432D
:10598000117040331A7810431870BDE76C5F000047
:105990000044004110B50400FEF7B2F9014B1C6051
:1059A00010BDC046200000200122024B52421A6066
:1059B0007047C04620000020164A10B51368591CD5
:1059C00026D0013B1360002B22D172B6124B134A32
:1059D0000433934213D9124A01211000147D0C4262
:1059E000FCD02021148BFF319B085B0021431183E5
:1059F000D3610C4B13800123027D1A42FCD0BFF30C
:105A00004F8F094B094ADA60BFF34F8FC046FDE75D
:105A100010BDC0462000002000200000030200004E
:105A20000040004102A5FFFF00ED00E00400FA0580
:105A30000B0010B50100180000F098F810BD000030
:105A400002B4714649084900095C49008E4402BC11
:105A50007047C046002243088B4274D303098B422F
:105A60005FD3030A8B4244D3030B8B4228D3030C2E
:105A70008B420DD3FF22090212BA030C8B4202D3D0
:105A80001212090265D0030B8B4219D300E0090AF8
:105A9000C30B8B4201D3CB03C01A5241830B8B4201
:105AA00001D38B03C01A5241430B8B4201D34B03EA
:105AB000C01A5241030B8B4201D30B03C01A52414F
:105AC000C30A8B4201D3CB02C01A5241830A8B42D4
:105AD00001D38B02C01A5241430A8B4201D34B02BD
:105AE000C01A5241030A8B4201D30B02C01A524121
:105AF000CDD2C3098B4201D3CB01C01A52418309D5
:105B00008B4201D38B01C01A524143098B4201D30E
:105B10004B01C01A524103098B4201D30B01C01A39
:105B20005241C3088B4201D3CB00C01A52418308B3
:105B30008B4201D38B00C01A524143088B4201D3E0
:105B40004B00C01A5241411A00D201465241104640
:105B50007047FFE701B5002000F006F802BDC0461F
:105B60000029F7D076E770477047C04610B50400AB
:105B700004481300002804D00A000220210000E09D
:105B800000BF10BD0000000070B500260C4D0D4C8C
:105B9000641BA410A64209D1002600F011F90A4D99
:105BA0000A4C641BA410A64205D170BDB300EB588B
:105BB00098470136EEE7B300EB5898470136F2E715
:105BC000880000208800002088000020B00000200D
:105BD00010B5034B0100186800F06AF810BDC0460C
:105BE0002400002010B5034B0100186800F016F8DF
:105BF00010BDC04624000020002310B59A4200D1F9
:105C000010BDCC5CC4540133F8E703001218934272
:105C100000D1704719700133F9E7000070B5050035
:105C2000002910D00C1F2368002B00DAE41828008C
:105C300000F0B5F81D4A1368002B05D163601460AD
:105C4000280000F0ADF870BDA34209D921686018A2
:105C50008342F3D118685B6841182160EEE71300B6
:105C60005A68002A01D0A242F9D919685818A042EE
:105C70000BD120680918581819608242E0D11068C9
:105C80005268411819605A60DAE7A04202D90C2321
:105C90002B60D5E721686018824203D110685268F2
:105CA0004118216062605C60CAE7C046381100207C
:105CB000032370B5CD1C9D43083506000C2D1ED264
:105CC0000C25A9421DD8300000F069F8254A146857
:105CD0002100002919D1244C2368002B03D1300066
:105CE00000F044F820602900300000F03FF8431C29
:105CF0002BD10C233000336000F052F803E0002D6C
:105D0000DFDA0C233360002070BD0B685B1B19D4F5
:105D10000B2B03D90B60CC18256003E04B688C4239
:105D20000DD11360300000F03BF8200007220B304B
:105D3000231D9043C31AE7D05A42E250E4E7636060
:105D40000C00EFE70C004968C3E70323C41C9C4325
:105D5000A042E1D0211A300000F008F8431CDBD14A
:105D6000C7E7C046381100203C110020002370B561
:105D7000064C05000800236000F014F8431C03D112
:105D80002368002B00D02B6070BDC046441100205A
:105D90000023C25C0133002AFBD1581E70477047B4
:105DA00070470000044A1368002B00D1034B1818F9
:105DB000106018007047C0464011002048110020B4
:105DC000F8B5C046F8BC08BC9E467047F8B5C0465A
:105DD000F8BC08BC9E467047763130303030004504
:105DE00052004F4B004661696C656420746F2070EF
:105DF0007574207468652057694669206D6F6475F5
:105E00006C6520696E20646F776E6C6F6164206DC5
:105E10006F6465000020C3C9C4CA0009121B242D89
:105E2000363F48415A536C657E7719100B023D345A
:105E30002F265158434A757C676E323B2029161F26
:105E4000040D7A7368615E574C452B2239300F067A
:105E50001D14636A7178474E555C646D767F4049C6
:105E6000525B2C253E3708011A137D746F6659501A
:105E70004B42353C272E1118030A565F444D727B66
:105E800060691E170C053A3328214F465D546B623A
:105E90007970070E151C232A31384148535A656C16
:105EA000777E09001B122D243F3658514A437C75DA
:105EB0006E671019020B343D262F737A6168575EA6
:105EC000454C3B3229201F160D046A6378714E47FA
:105ED0005C55222B3039060F141D252C373E010846
:105EE000131A6D647F7649405B523C352E2718119A
:105EF0000A03747D666F5059424B171E050C333AE6
:105F000021285F564D447B7269600E071C152A23B9
:105F10003831464F545D626B70790000000000001C
:105F200000000000F5320000F7320000010203001B
:105F3000000000000000000085330000F93300007D
:105F400097330000A13300006533000005340000E2
:105F5000493400008535000085340000833300009B
:105F60008333000035350000873300000000000057
:105F7000140000000800000004000000FF00FFFF04
:105F8000FFFF04000000000004000000010000000A
:105F90001C000000040000000000FF0000000000E2
:105FA00005000000010000001C00000005000100C9
:105FB0000100FF00000000000600000001000000DA
:105FC0001C000000060000010001060000000000A7
:105FD00007000000010000001C0000000700010194
:105FE00000010700000000000300000001000000A5
:105FF000040000000100FFFFFFFF0300000000009D
:106000000200000001000000060000000000FFFF89
:10601000FFFF0200000000001B000000080000005D
:1060200004000000FF00FFFFFFFFFF000000000072
:106030001C0000000800000004000000FF00FFFF3B
:10604000FFFFFF0001000000020000000800000048
:1060500004000000FF00FFFFFFFFFF000000000042
:10606000160000000200000004000000FF00FFFF17
:10607000FFFFFF000000000017000000020000000A
:1060800004000000FF00FFFFFFFFFF000100000011
:10609000080000000300000004000000FF00FFFFF4
:1060A000FFFFFF00010000000900000003000000E6
:1060B00004000000FF00FFFFFFFFFF0001000000E1
:1060C0000B0000000800000004000000FF00FFFFBC
:1060D000FFFFFF00000000000800000002000000B9
:1060E00004000000FF00FFFFFFFFFF0000000000B2
:1060F000090000000200000004000000FF00FFFF94
:10610000FFFFFF00000000000C0000000200000084
:1061100004000000FF00FFFFFFFFFF000000000081
:106120000D0000000200000004000000FF00FFFF5F
:10613000FFFFFF0000000000100000000200000050
:1061400004000000FF00FFFFFFFFFF000000000051
:10615000110000000200000004000000FF00FFFF2B
:10616000FFFFFF000000000013000000020000001D
:1061700004000000FF00FFFFFFFFFF000100000020
:10618000030000000800000004000000FF00FFFF03
:10619000FFFFFF00000000001200000008000000E8
:1061A00004000000FF00FFFFFFFFFF0000000000F1
:1061B000150000000800000004000000FF00FFFFC1
:1061C000FFFF0500010000001700000003000000B1
:1061D00004000000FF00FFFFFFFFFF0001000000C0
:1061E000160000000300000004000000FF00FFFF95
:1061F000FFFFFF00010000000A000000080000008F
:1062000004000000FF00FFFFFFFFFF000000000090
:106210000E0000000800000004000000FF00FFFF67
:10622000FFFFFF00000000000F000000080000005A
:1062300004000000FF00FFFFFFFF0F000000000050
:106240000A0000000800000004000000FF00FFFF3B
:10625000FFFFFF00000000000B000000080000002E
:1062600004000000FF00FFFFFFFFFF000000000030
:10627000180000000600000000000000FF00FFFF03
:10628000FFFFFF00000000001900000006000000F2
:1062900000000000FF00FFFFFFFFFF000000000004
:1062A000000000000800000000000000FF00FFFFE9
:1062B000FFFFFF00000000000100000008000000D8
:1062C00000000000FF00FFFFFFFFFF0000000000D4
:1062D00000000000793A00009D3C0000753A000083
:1062E000813C0000613C0000D93C0000BD3C000046
:1062F0008F3C00008D3A0000F7390000B93B0000E8
:10630000213A0000F0FFFFFF00000000513C0000B8
:10631000A93B0000FD3C0000653A000000000000C1
:1063200000000000353F0000974C00006F4C00005B
:106330007B4C00009D3D00009F3D00008D3E000015
:1063400073656E7365426F78204D435500000403FA
:10635000090473656E7365426F780012010002EFE5
:10636000020140D80467EF000101020301000000B0
:10637000000000000000000049500000A952000089
:10638000214D00005F4D00001D4D0000DD5000005C
:106390002B4D00000D4D0000BD4D00003F4D000095
:1063A000094D000000000000000000004551000001
:1063B0000D0A0000000000000000000000000000C6
:1063C00000000000000000000000000000000000CD
:1063D00000000000000000000000000000000000BD
:1063E00000000000000000000000000000000000AD
:1063F000000000000000000000000000000000009D
:10640000000000000000000000000000000000008C
:08641000000000000000000084
:1064180000000000FF1718FF00010000FFFFFFFF4A
:1064280000C2010000000800FFFFFFFF40420F000C
:10643800FFFFFFFF2800002000000000D4630000D9
:10644800F4630000B46300000000000000000000D6
:106458000000000000000000000000000000000034
:106468000000000000000000000000000000000024
:106478000000000000000000000000000000000014
:106488000000000000000000000000000000000004
:106498000000000000000000DD2000008522000050
:1064A800912400005125000041330000BD35000053
:1064B80049360000893D0000F94C00008951000070
:1064C800B5200000000000000000000000000000EF
:04000003000053C5E1
:00000001FF
